{
  "_format": "hh-sol-artifact-1",
  "contractName": "MyToken",
  "sourceName": "contracts/MyToken.sol",
  "abi": [
    {
      "inputs": [],
      "stateMutability": "nonpayable",
      "type": "constructor"
    },
    {
      "anonymous": false,
      "inputs": [
        {
          "indexed": true,
          "internalType": "address",
          "name": "owner",
          "type": "address"
        },
        {
          "indexed": true,
          "internalType": "address",
          "name": "approved",
          "type": "address"
        },
        {
          "indexed": true,
          "internalType": "uint256",
          "name": "tokenId",
          "type": "uint256"
        }
      ],
      "name": "Approval",
      "type": "event"
    },
    {
      "anonymous": false,
      "inputs": [
        {
          "indexed": true,
          "internalType": "address",
          "name": "owner",
          "type": "address"
        },
        {
          "indexed": true,
          "internalType": "address",
          "name": "operator",
          "type": "address"
        },
        {
          "indexed": false,
          "internalType": "bool",
          "name": "approved",
          "type": "bool"
        }
      ],
      "name": "ApprovalForAll",
      "type": "event"
    },
    {
      "anonymous": false,
      "inputs": [
        {
          "indexed": true,
          "internalType": "address",
          "name": "previousOwner",
          "type": "address"
        },
        {
          "indexed": true,
          "internalType": "address",
          "name": "newOwner",
          "type": "address"
        }
      ],
      "name": "OwnershipTransferred",
      "type": "event"
    },
    {
      "anonymous": false,
      "inputs": [
        {
          "indexed": true,
          "internalType": "address",
          "name": "from",
          "type": "address"
        },
        {
          "indexed": true,
          "internalType": "address",
          "name": "to",
          "type": "address"
        },
        {
          "indexed": true,
          "internalType": "uint256",
          "name": "tokenId",
          "type": "uint256"
        }
      ],
      "name": "Transfer",
      "type": "event"
    },
    {
      "inputs": [
        {
          "internalType": "address",
          "name": "to",
          "type": "address"
        },
        {
          "internalType": "uint256",
          "name": "tokenId",
          "type": "uint256"
        }
      ],
      "name": "approve",
      "outputs": [],
      "stateMutability": "nonpayable",
      "type": "function"
    },
    {
      "inputs": [
        {
          "internalType": "address",
          "name": "owner",
          "type": "address"
        }
      ],
      "name": "balanceOf",
      "outputs": [
        {
          "internalType": "uint256",
          "name": "",
          "type": "uint256"
        }
      ],
      "stateMutability": "view",
      "type": "function"
    },
    {
      "inputs": [
        {
          "internalType": "uint256",
          "name": "tokenId",
          "type": "uint256"
        }
      ],
      "name": "getApproved",
      "outputs": [
        {
          "internalType": "address",
          "name": "",
          "type": "address"
        }
      ],
      "stateMutability": "view",
      "type": "function"
    },
    {
      "inputs": [
        {
          "internalType": "address",
          "name": "owner",
          "type": "address"
        },
        {
          "internalType": "address",
          "name": "operator",
          "type": "address"
        }
      ],
      "name": "isApprovedForAll",
      "outputs": [
        {
          "internalType": "bool",
          "name": "",
          "type": "bool"
        }
      ],
      "stateMutability": "view",
      "type": "function"
    },
    {
      "inputs": [],
      "name": "name",
      "outputs": [
        {
          "internalType": "string",
          "name": "",
          "type": "string"
        }
      ],
      "stateMutability": "view",
      "type": "function"
    },
    {
      "inputs": [],
      "name": "owner",
      "outputs": [
        {
          "internalType": "address",
          "name": "",
          "type": "address"
        }
      ],
      "stateMutability": "view",
      "type": "function"
    },
    {
      "inputs": [
        {
          "internalType": "uint256",
          "name": "tokenId",
          "type": "uint256"
        }
      ],
      "name": "ownerOf",
      "outputs": [
        {
          "internalType": "address",
          "name": "",
          "type": "address"
        }
      ],
      "stateMutability": "view",
      "type": "function"
    },
    {
      "inputs": [],
      "name": "renounceOwnership",
      "outputs": [],
      "stateMutability": "nonpayable",
      "type": "function"
    },
    {
      "inputs": [
        {
          "internalType": "address",
          "name": "to",
          "type": "address"
        }
      ],
      "name": "safeMint",
      "outputs": [],
      "stateMutability": "nonpayable",
      "type": "function"
    },
    {
      "inputs": [
        {
          "internalType": "address",
          "name": "from",
          "type": "address"
        },
        {
          "internalType": "address",
          "name": "to",
          "type": "address"
        },
        {
          "internalType": "uint256",
          "name": "tokenId",
          "type": "uint256"
        }
      ],
      "name": "safeTransferFrom",
      "outputs": [],
      "stateMutability": "nonpayable",
      "type": "function"
    },
    {
      "inputs": [
        {
          "internalType": "address",
          "name": "from",
          "type": "address"
        },
        {
          "internalType": "address",
          "name": "to",
          "type": "address"
        },
        {
          "internalType": "uint256",
          "name": "tokenId",
          "type": "uint256"
        },
        {
          "internalType": "bytes",
          "name": "data",
          "type": "bytes"
        }
      ],
      "name": "safeTransferFrom",
      "outputs": [],
      "stateMutability": "nonpayable",
      "type": "function"
    },
    {
      "inputs": [
        {
          "internalType": "address",
          "name": "operator",
          "type": "address"
        },
        {
          "internalType": "bool",
          "name": "approved",
          "type": "bool"
        }
      ],
      "name": "setApprovalForAll",
      "outputs": [],
      "stateMutability": "nonpayable",
      "type": "function"
    },
    {
      "inputs": [
        {
          "internalType": "bytes4",
          "name": "interfaceId",
          "type": "bytes4"
        }
      ],
      "name": "supportsInterface",
      "outputs": [
        {
          "internalType": "bool",
          "name": "",
          "type": "bool"
        }
      ],
      "stateMutability": "view",
      "type": "function"
    },
    {
      "inputs": [],
      "name": "symbol",
      "outputs": [
        {
          "internalType": "string",
          "name": "",
          "type": "string"
        }
      ],
      "stateMutability": "view",
      "type": "function"
    },
    {
      "inputs": [
        {
          "internalType": "uint256",
          "name": "tokenId",
          "type": "uint256"
        }
      ],
      "name": "tokenURI",
      "outputs": [
        {
          "internalType": "string",
          "name": "",
          "type": "string"
        }
      ],
      "stateMutability": "view",
      "type": "function"
    },
    {
      "inputs": [
        {
          "internalType": "address",
          "name": "from",
          "type": "address"
        },
        {
          "internalType": "address",
          "name": "to",
          "type": "address"
        },
        {
          "internalType": "uint256",
          "name": "tokenId",
          "type": "uint256"
        }
      ],
      "name": "transferFrom",
      "outputs": [],
      "stateMutability": "nonpayable",
      "type": "function"
    },
    {
      "inputs": [
        {
          "internalType": "address",
          "name": "newOwner",
          "type": "address"
        }
      ],
      "name": "transferOwnership",
      "outputs": [],
      "stateMutability": "nonpayable",
      "type": "function"
    }
  ],
  "bytecode": "0x60806040523480156200001157600080fd5b50604080518082018252600781526626bcaa37b5b2b760c91b6020808301918252835180850190945260038452624d544b60e81b9084015281519192916200005c91600091620000eb565b50805162000072906001906020840190620000eb565b5050506200008f620000896200009560201b60201c565b62000099565b620001ce565b3390565b600680546001600160a01b038381166001600160a01b0319831681179093556040519116919082907f8be0079c531659141344cd1fd0a4f28419497f9722a3daafe3b4186f6b6457e090600090a35050565b828054620000f99062000191565b90600052602060002090601f0160209004810192826200011d576000855562000168565b82601f106200013857805160ff191683800117855562000168565b8280016001018555821562000168579182015b82811115620001685782518255916020019190600101906200014b565b50620001769291506200017a565b5090565b5b808211156200017657600081556001016200017b565b600181811c90821680620001a657607f821691505b60208210811415620001c857634e487b7160e01b600052602260045260246000fd5b50919050565b61142c80620001de6000396000f3fe608060405234801561001057600080fd5b50600436106100eb5760003560e01c806370a082311161009257806370a08231146101b9578063715018a6146101da5780638da5cb5b146101e257806395d89b41146101f3578063a22cb465146101fb578063b88d4fde1461020e578063c87b56dd14610221578063e985e9c514610234578063f2fde38b1461024757600080fd5b806301ffc9a7146100f057806306fdde0314610118578063081812fc1461012d578063095ea7b31461015857806323b872dd1461016d57806340d097c31461018057806342842e0e146101935780636352211e146101a6575b600080fd5b6101036100fe36600461111b565b61025a565b60405190151581526020015b60405180910390f35b6101206102ac565b60405161010f9190611203565b61014061013b366004611153565b61033e565b6040516001600160a01b03909116815260200161010f565b61016b6101663660046110f2565b610365565b005b61016b61017b366004610fa8565b610480565b61016b61018e366004610f5c565b6104b1565b61016b6101a1366004610fa8565b6104e2565b6101406101b4366004611153565b6104fd565b6101cc6101c7366004610f5c565b610532565b60405190815260200161010f565b61016b6105b8565b6006546001600160a01b0316610140565b6101206105cc565b61016b6102093660046110b8565b6105db565b61016b61021c366004610fe3565b6105e6565b61012061022f366004611153565b61061e565b610103610242366004610f76565b610692565b61016b610255366004610f5c565b6106c0565b60006001600160e01b031982166380ac58cd60e01b148061028b57506001600160e01b03198216635b5e139f60e01b145b806102a657506301ffc9a760e01b6001600160e01b03198316145b92915050565b6060600080546102bb9061138f565b80601f01602080910402602001604051908101604052809291908181526020018280546102e79061138f565b80156103345780601f1061030957610100808354040283529160200191610334565b820191906000526020600020905b81548152906001019060200180831161031757829003601f168201915b5050505050905090565b600061034982610739565b506000908152600460205260409020546001600160a01b031690565b6000610370826104fd565b9050806001600160a01b0316836001600160a01b031614156103e35760405162461bcd60e51b815260206004820152602160248201527f4552433732313a20617070726f76616c20746f2063757272656e74206f776e656044820152603960f91b60648201526084015b60405180910390fd5b336001600160a01b03821614806103ff57506103ff8133610692565b6104715760405162461bcd60e51b815260206004820152603d60248201527f4552433732313a20617070726f76652063616c6c6572206973206e6f7420746f60448201527f6b656e206f776e6572206f7220617070726f76656420666f7220616c6c00000060648201526084016103da565b61047b838361075e565b505050565b61048a33826107cc565b6104a65760405162461bcd60e51b81526004016103da90611216565b61047b83838361082b565b6104b961098f565b60006104c460075490565b90506104d4600780546001019055565b6104de82826109e9565b5050565b61047b838383604051806020016040528060008152506105e6565b6000818152600260205260408120546001600160a01b0316806102a65760405162461bcd60e51b81526004016103da90611331565b60006001600160a01b03821661059c5760405162461bcd60e51b815260206004820152602960248201527f4552433732313a2061646472657373207a65726f206973206e6f7420612076616044820152683634b21037bbb732b960b91b60648201526084016103da565b506001600160a01b031660009081526003602052604090205490565b6105c061098f565b6105ca6000610a03565b565b6060600180546102bb9061138f565b6104de338383610a55565b6105f033836107cc565b61060c5760405162461bcd60e51b81526004016103da90611216565b61061884848484610b20565b50505050565b606061062982610739565b600061064060408051602081019091526000815290565b90506000815111610660576040518060200160405280600081525061068b565b8061066a84610b53565b60405160200161067b929190611197565b6040516020818303038152906040525b9392505050565b6001600160a01b03918216600090815260056020908152604080832093909416825291909152205460ff1690565b6106c861098f565b6001600160a01b03811661072d5760405162461bcd60e51b815260206004820152602660248201527f4f776e61626c653a206e6577206f776e657220697320746865207a65726f206160448201526564647265737360d01b60648201526084016103da565b61073681610a03565b50565b61074281610bfe565b6107365760405162461bcd60e51b81526004016103da90611331565b600081815260046020526040902080546001600160a01b0319166001600160a01b0384169081179091558190610793826104fd565b6001600160a01b03167f8c5be1e5ebec7d5bd14f71427d1e84f3dd0314c0f7b2291e5b200ac8c7c3b92560405160405180910390a45050565b6000806107d8836104fd565b9050806001600160a01b0316846001600160a01b031614806107ff57506107ff8185610692565b806108235750836001600160a01b03166108188461033e565b6001600160a01b0316145b949350505050565b826001600160a01b031661083e826104fd565b6001600160a01b0316146108645760405162461bcd60e51b81526004016103da906112b5565b6001600160a01b0382166108c65760405162461bcd60e51b8152602060048201526024808201527f4552433732313a207472616e7366657220746f20746865207a65726f206164646044820152637265737360e01b60648201526084016103da565b826001600160a01b03166108d9826104fd565b6001600160a01b0316146108ff5760405162461bcd60e51b81526004016103da906112b5565b600081815260046020908152604080832080546001600160a01b03199081169091556001600160a01b0387811680865260038552838620805460001901905590871680865283862080546001019055868652600290945282852080549092168417909155905184937fddf252ad1be2c89b69c2b068fc378daa952ba7f163c4a11628f55a4df523b3ef91a4505050565b6006546001600160a01b031633146105ca5760405162461bcd60e51b815260206004820181905260248201527f4f776e61626c653a2063616c6c6572206973206e6f7420746865206f776e657260448201526064016103da565b6104de828260405180602001604052806000815250610c1b565b600680546001600160a01b038381166001600160a01b0319831681179093556040519116919082907f8be0079c531659141344cd1fd0a4f28419497f9722a3daafe3b4186f6b6457e090600090a35050565b816001600160a01b0316836001600160a01b03161415610ab35760405162461bcd60e51b815260206004820152601960248201527822a9219b99189d1030b8383937bb32903a379031b0b63632b960391b60448201526064016103da565b6001600160a01b03838116600081815260056020908152604080832094871680845294825291829020805460ff191686151590811790915591519182527f17307eab39ab6107e8899845ad3d59bd9653f200f220920489ca2b5937696c31910160405180910390a3505050565b610b2b84848461082b565b610b3784848484610c4e565b6106185760405162461bcd60e51b81526004016103da90611263565b60606000610b6083610d5b565b600101905060008167ffffffffffffffff811115610b8e57634e487b7160e01b600052604160045260246000fd5b6040519080825280601f01601f191660200182016040528015610bb8576020820181803683370190505b5090508181016020015b600019016f181899199a1a9b1b9c1cb0b131b232b360811b600a86061a8153600a8504945084610bf157610bf6565b610bc2565b509392505050565b6000908152600260205260409020546001600160a01b0316151590565b610c258383610e33565b610c326000848484610c4e565b61047b5760405162461bcd60e51b81526004016103da90611263565b60006001600160a01b0384163b15610d5057604051630a85bd0160e11b81526001600160a01b0385169063150b7a0290610c929033908990889088906004016111c6565b602060405180830381600087803b158015610cac57600080fd5b505af1925050508015610cdc575060408051601f3d908101601f19168201909252610cd991810190611137565b60015b610d36573d808015610d0a576040519150601f19603f3d011682016040523d82523d6000602084013e610d0f565b606091505b508051610d2e5760405162461bcd60e51b81526004016103da90611263565b805181602001fd5b6001600160e01b031916630a85bd0160e11b149050610823565b506001949350505050565b60008072184f03e93ff9f4daa797ed6e38ed64bf6a1f0160401b8310610d9a5772184f03e93ff9f4daa797ed6e38ed64bf6a1f0160401b830492506040015b6d04ee2d6d415b85acef81000000008310610dc6576d04ee2d6d415b85acef8100000000830492506020015b662386f26fc100008310610de457662386f26fc10000830492506010015b6305f5e1008310610dfc576305f5e100830492506008015b6127108310610e1057612710830492506004015b60648310610e22576064830492506002015b600a83106102a65760010192915050565b6001600160a01b038216610e895760405162461bcd60e51b815260206004820181905260248201527f4552433732313a206d696e7420746f20746865207a65726f206164647265737360448201526064016103da565b610e9281610bfe565b15610eaf5760405162461bcd60e51b81526004016103da906112fa565b610eb881610bfe565b15610ed55760405162461bcd60e51b81526004016103da906112fa565b6001600160a01b038216600081815260036020908152604080832080546001019055848352600290915280822080546001600160a01b0319168417905551839291907fddf252ad1be2c89b69c2b068fc378daa952ba7f163c4a11628f55a4df523b3ef908290a45050565b80356001600160a01b0381168114610f5757600080fd5b919050565b600060208284031215610f6d578081fd5b61068b82610f40565b60008060408385031215610f88578081fd5b610f9183610f40565b9150610f9f60208401610f40565b90509250929050565b600080600060608486031215610fbc578081fd5b610fc584610f40565b9250610fd360208501610f40565b9150604084013590509250925092565b60008060008060808587031215610ff8578081fd5b61100185610f40565b935061100f60208601610f40565b925060408501359150606085013567ffffffffffffffff80821115611032578283fd5b818701915087601f830112611045578283fd5b813581811115611057576110576113ca565b604051601f8201601f19908116603f0116810190838211818310171561107f5761107f6113ca565b816040528281528a6020848701011115611097578586fd5b82602086016020830137918201602001949094529598949750929550505050565b600080604083850312156110ca578182fd5b6110d383610f40565b9150602083013580151581146110e7578182fd5b809150509250929050565b60008060408385031215611104578182fd5b61110d83610f40565b946020939093013593505050565b60006020828403121561112c578081fd5b813561068b816113e0565b600060208284031215611148578081fd5b815161068b816113e0565b600060208284031215611164578081fd5b5035919050565b60008151808452611183816020860160208601611363565b601f01601f19169290920160200192915050565b600083516111a9818460208801611363565b8351908301906111bd818360208801611363565b01949350505050565b6001600160a01b03858116825284166020820152604081018390526080606082018190526000906111f99083018461116b565b9695505050505050565b60208152600061068b602083018461116b565b6020808252602d908201527f4552433732313a2063616c6c6572206973206e6f7420746f6b656e206f776e6560408201526c1c881bdc88185c1c1c9bdd9959609a1b606082015260800190565b60208082526032908201527f4552433732313a207472616e7366657220746f206e6f6e20455243373231526560408201527131b2b4bb32b91034b6b83632b6b2b73a32b960711b606082015260800190565b60208082526025908201527f4552433732313a207472616e736665722066726f6d20696e636f72726563742060408201526437bbb732b960d91b606082015260800190565b6020808252601c908201527f4552433732313a20746f6b656e20616c7265616479206d696e74656400000000604082015260600190565b602080825260189082015277115490cdcc8c4e881a5b9d985b1a59081d1bdad95b88125160421b604082015260600190565b60005b8381101561137e578181015183820152602001611366565b838111156106185750506000910152565b600181811c908216806113a357607f821691505b602082108114156113c457634e487b7160e01b600052602260045260246000fd5b50919050565b634e487b7160e01b600052604160045260246000fd5b6001600160e01b03198116811461073657600080fdfea2646970667358221220abbefa813a51718c224e86326018eabb04d48d88c60784708ff560a8fb04aa5764736f6c63430008040033",
  "linkReferences": {},
  "deployedLinkReferences": {}
}